:100000000C94240E0C944A0E0C944A0E0C944A0E36
:100010000C944A0E0C944A0E0C944A0E0C944A0E00
:100020000C944A0E0C944A0E0C94E64D0C94B44E6B
:100030000C944A0E0C944A0E0C944A0E0C944A0EE0
:100040000C944A0E0C944A0E0C944A0E0C944A0ED0
:100050000C94691A0C94C12D0C944A0E0C944A0EFF
:100060000C944A0E0C94741C0C94991C0C944A0E1B
:100070000C944A0E0C944A0E0C944A0E0C944A0EA0
:100080000C94FD170C944A0E0C944A0E0C944A0ED4
:100090000C944A0E0C944A0E084AD73B3BCE016E94
:1000A00084BCBFFDC12F3D6C74319ABD56833DDACF
:1000B0003D00C77F11BED9E4BB4C3E916BAAAABEDE
:1000C000000000803F00416C745F53746570004114
:1000D0006C745F556E6974730057696E5F426F741C
:1000E000746F6D0057696E5F546F7000496E69746C
:1000F0005F46696C6500496E69745F4D6F646500A9
:10010000545A5F4F666673657400416C61726D5F2F
:1001100046696C6500416C61726D5F547970650071
:10012000416C61726D5F456C657600445A5F456C49
:1001300065760057696E5F42656C6F770057696E30
:100140005F41626F76650057696E646F7700557323
:10015000655F53415300485F546872657368005689
:100160005F5468726573680053705F566F6C756D8D
:10017000650053705F4465630053705F526174653E
:100180000053705F556E6974730053705F4D6F64F8
:100190006500466C61746C696E65004D61785F52F4
:1001A000617465004D696E5F52617465004D6178E0
:1001B0005F56616C5F32004D696E5F56616C5F32F5
:1001C000004D6F64655F3200566F6C756D65004C55
:1001D000696D697473004D6178004D696E004D6FF3
:1001E00064650052617465004D6F64656C003B206E
:1001F0004669726D776172652076657273696F6E9C
:10020000207632303139313130352D64697274796C
:100210000D0A0D0A3B20466F7220696E666F726D83
:100220006174696F6E206F6E20636F6E66696775AB
:1002300072696E6720466C7953696768742C207008
:100240006C6561736520676F20746F0D0A3B202019
:10025000202020687474703A2F2F666C7973696758
:1002600068742E63612F77696B690D0A0D0A3B2054
:100270004750532073657474696E67730D0A0D0AD5
:100280004D6F64656C3A20202020203720202020EC
:10029000203B2044796E616D6963206D6F64656CED
:1002A0000D0A202020202020202020202020202077
:1002B0002020203B20202030203D20506F72746190
:1002C000626C650D0A202020202020202020202084
:1002D0002020202020203B20202032203D2053744D
:1002E0006174696F6E6172790D0A202020202020D0
:1002F00020202020202020202020203B20202033D0
:10030000203D205065646573747269616E0D0A202A
:1003100020202020202020202020202020202020DD
:100320003B20202034203D204175746F6D6F74692F
:1003300076650D0A2020202020202020202020204B
:1003400020202020203B20202035203D20536561A7
:100350000D0A2020202020202020202020202020C6
:100360002020203B20202036203D20416972626FF2
:10037000726E652077697468203C203120472061C7
:100380006363656C65726174696F6E0D0A2020206D
:1003900020202020202020202020202020203B2042
:1003A000202037203D20416972626F726E65207790
:1003B000697468203C2032204720616363656C6566
:1003C000726174696F6E0D0A202020202020202089
:1003D0002020202020202020203B20202038203DCD
:1003E00020416972626F726E652077697468203C83
:1003F0002034204720616363656C65726174696FA6
:100400006E0D0A526174653A20202020202032307F
:10041000302020203B204D6561737572656D656EDF
:1004200074207261746520286D73290D0A0D0A3BD2
:1004300020546F6E652073657474696E67730D0A5E
:100440000D0A4D6F64653A202020202020322020A4
:100450002020203B204D6561737572656D656E745B
:10046000206D6F64650D0A20202020202020202090
:1004700020202020202020203B20202030203D2034
:10048000486F72697A6F6E74616C20737065656411
:100490000D0A202020202020202020202020202085
:1004A0002020203B20202031203D20566572746999
:1004B00063616C2073706565640D0A202020202024
:1004C0002020202020202020202020203B20202011
:1004D00032203D20476C69646520726174696F0D3C
:1004E0000A20202020202020202020202020202022
:1004F00020203B20202033203D20496E76657273FA
:100500006520676C69646520726174696F0D0A20EB
:1005100020202020202020202020202020202020DB
:100520003B20202034203D20546F74616C20737078
:100530006565640D0A202020202020202020202016
:100540002020202020203B2020203131203D20442D
:1005500069766520616E676C650D0A4D696E3A209B
:100560002020202020203020202020203B204C6FE5
:10057000776573742070697463682076616C756543
:100580000D0A202020202020202020202020202094
:100590002020203B202020636D2F7320202020204E
:1005A000202020696E204D6F646520302C20312C76
:1005B000206F7220340D0A202020202020202020AF
:1005C00020202020202020203B20202072617469E0
:1005D0006F202A2031303020696E204D6F646520F5
:1005E00032206F7220330D0A20202020202020206E
:1005F0002020202020202020203B20202064656710
:10060000726565732020202020696E204D6F64651F
:100610002031310D0A4D61783A2020202020202001
:100620003330302020203B20486967686573742090
:1006300070697463682076616C75650D0A202020EE
:1006400020202020202020202020202020203B208F
:100650002020636D2F732020202020202020696E11
:10066000204D6F646520302C20312C206F72203497
:100670000D0A2020202020202020202020202020A3
:100680002020203B202020726174696F202A2031B5
:10069000303020696E204D6F64652032206F7220EB
:1006A000330D0A2020202020202020202020202060
:1006B000202020203B202020646567726565732020
:1006C00020202020696E204D6F64652031310D0A95
:1006D0004C696D6974733A2020202031202020203D
:1006E000203B204265686176696F75722077686586
:1006F0006E206F75747369646520626F756E6473C4
:100700000D0A202020202020202020202020202012
:100710002020203B20202030203D204E6F20746F71
:100720006E650D0A2020202020202020202020205F
:1007300020202020203B20202031203D204D696EAC
:100740002F6D617820746F6E650D0A2020202020A7
:100750002020202020202020202020203B2020207E
:1007600032203D2043686972702075702F646F7766
:100770006E0D0A2020202020202020202020202054
:10078000202020203B20202033203D204368697218
:100790007020646F776E2F75700D0A566F6C756DD3
:1007A000653A202020203620202020203B203020A9
:1007B000286D696E2920746F203820286D61782992
:1007C0000D0A0D0A3B2052617465207365747469CB
:1007D0006E67730D0A0D0A4D6F64655F323A202013
:1007E00020203920202020203B2044657465726D34
:1007F000696E657320746F6E6520726174650D0A91
:1008000020202020202020202020202020202020E8
:10081000203B20202030203D20486F72697A6F6E87
:1008200074616C2073706565640D0A20202020209F
:100830002020202020202020202020203B2020209D
:1008400031203D20566572746963616C2073706558
:1008500065640D0A20202020202020202020202038
:1008600020202020203B20202032203D20476C6982
:10087000646520726174696F0D0A20202020202099
:1008800020202020202020202020203B202020333A
:10089000203D20496E766572736520676C696465DA
:1008A00020726174696F0D0A2020202020202020F2
:1008B0002020202020202020203B20202034203DEC
:1008C00020546F74616C2073706565640D0A20207C
:1008D0002020202020202020202020202020203BFD
:1008E00020202038203D204D61676E697475646555
:1008F000206F662056616C756520310D0A2020201E
:1009000020202020202020202020202020203B20CC
:10091000202039203D204368616E676520696E2084
:1009200056616C756520310D0A2020202020202082
:10093000202020202020202020203B20202031317A
:10094000203D204469766520616E676C650D0A4D17
:10095000696E5F56616C5F323A2033303020202060
:100960003B204C6F776573742072617465207661EB
:100970006C75650D0A2020202020202020202020BA
:100980002020202020203B202020636D2F7320205A
:1009900020202020202020207768656E204D6F6465
:1009A000652032203D20302C20312C206F722034E5
:1009B0000D0A202020202020202020202020202060
:1009C0002020203B202020726174696F202A203172
:1009D00030302020207768656E204D6F64652032AE
:1009E000203D2032206F7220330D0A20202020204D
:1009F0002020202020202020202020203B202020DC
:100A000070657263656E74202A20313030207768FB
:100A1000656E204D6F64652032203D20390D0A201F
:100A200020202020202020202020202020202020C6
:100A30003B2020206465677265657320202020209C
:100A400020207768656E204D6F64652032203D2040
:100A500031310D0A4D61785F56616C5F323A203159
:100A600035303020203B20486967686573742072F8
:100A70006174652076616C75650D0A202020202048
:100A80002020202020202020202020203B2020204B
:100A9000636D2F73202020202020202020207768C5
:100AA000656E204D6F64652032203D20302C203152
:100AB0002C206F7220340D0A20202020202020209E
:100AC0002020202020202020203B20202072617424
:100AD000696F202A203130302020207768656E2011
:100AE0004D6F64652032203D2032206F7220330D1F
:100AF0000A2020202020202020202020202020200C
:100B000020203B20202070657263656E74202A20AF
:100B1000313030207768656E204D6F64652032205B
:100B20003D20390D0A2020202020202020202020B8
:100B30002020202020203B202020646567726565EE
:100B400073202020202020207768656E204D6F6460
:100B5000652032203D2031310D0A4D696E5F5261B2
:100B600074653A20203130302020203B204D696EC2
:100B7000696D756D20726174652028487A202A207D
:100B8000313030290D0A4D61785F526174653A2029
:100B9000203530302020203B204D6178696D756D07
:100BA00020726174652028487A202A20313030294B
:100BB0000D0A466C61746C696E653A202030202005
:100BC0002020203B20466C61746C696E6520617446
:100BD000206D696E696D756D20726174650D0A20F6
:100BE0002020202020202020202020202020202005
:100BF0003B20202030203D204E6F0D0A2020202059
:100C0000202020202020202020202020203B2020C9
:100C10002031203D205965730D0A0D0A3B20537089
:100C2000656563682073657474696E67730D0A0D7A
:100C30000A53705F526174653A20202030202020D2
:100C400020203B20537065656368207261746520C5
:100C50002873290D0A202020202020202020202059
:100C60002020202020203B20202030203D204E6FBF
:100C7000207370656563680D0A53705F566F6C75FD
:100C80006D653A203820202020203B203020286D20
:100C9000696E2920746F203820286D6178290D0A2B
:100CA0000D0A53705F4D6F64653A2020203220207A
:100CB0002020203B20537065656368206D6F64655C
:100CC0000D0A20202020202020202020202020204D
:100CD0002020203B20202030203D20486F72697A60
:100CE0006F6E74616C2073706565640D0A2020203E
:100CF00020202020202020202020202020203B20D9
:100D0000202031203D20566572746963616C207328
:100D1000706565640D0A20202020202020202020DE
:100D2000202020202020203B20202032203D204752
:100D30006C69646520726174696F0D0A202020203F
:100D4000202020202020202020202020203B202088
:100D50002033203D20496E766572736520676C698B
:100D6000646520726174696F0D0A202020202020A4
:100D700020202020202020202020203B2020203444
:100D8000203D20546F74616C2073706565640D0A9A
:100D90002020202020202020202020202020202053
:100DA000203B2020203131203D20446976652061A0
:100DB0006E676C650D0A2020202020202020202036
:100DC000202020202020203B2020203132203D20C8
:100DD000416C7469747564652061626F7665204446
:100DE0005A5F456C65760D0A53705F556E69747372
:100DF0003A20203120202020203B2053706565635D
:100E00006820756E6974730D0A2020202020202030
:100E1000202020202020202020203B2020203020A7
:100E20003D206B6D2F68206F72206D0D0A202020F1
:100E300020202020202020202020202020203B2097
:100E4000202031203D206D7068206F72206665651E
:100E5000740D0A53705F4465633A202020203120CE
:100E6000202020203B2053706565636820707265E8
:100E7000636973696F6E0D0A2020202020202020D6
:100E80002020202020202020203B202020416C7486
:100E90006974756465207374657020696E204D6F88
:100EA000646520350D0A20202020202020202020CD
:100EB000202020202020203B202020446563696DD5
:100EC000616C20706C6163657320696E20616C6C6D
:100ED000206F74686572204D6F6465730D0A0D0A8A
:100EE0003B205468726573686F6C64730D0A0D0A59
:100EF000565F5468726573683A2020313030302074
:100F0000203B204D696E696D756D20766572746940
:100F100063616C20737065656420666F7220746F06
:100F20006E652028636D2F73290D0A485F5468721F
:100F30006573683A20203020202020203B204D6916
:100F40006E696D756D20686F72697A6F6E74616C11
:100F500020737065656420666F7220746F6E652003
:100F600028636D2F73290D0A0D0A3B204D697363A9
:100F7000656C6C616E656F75730D0A0D0A5573654E
:100F80005F5341533A2020203120202020203B2055
:100F900055736520736B7964697665722773206178
:100FA000697273706565640D0A202020202020205E
:100FB000202020202020202020203B202020302006
:100FC0003D204E6F0D0A20202020202020202020B0
:100FD000202020202020203B20202031203D20598F
:100FE00065730D0A545A5F4F66667365743A203014
:100FF00020202020203B2054696D657A6F6E65208B
:101000006F6666736574206F66206F757470757493
:101010002066696C657320696E207365636F6E640A
:10102000730D0A2020202020202020202020202096
:10103000202020203B2020202D3134343030203D12
:10104000205554432D342028454454290D0A20208E
:101050002020202020202020202020202020203B75
:101060002020202D3138303030203D205554432D64
:101070003520284553542C20434454290D0A202060
:101080002020202020202020202020202020203B45
:101090002020202D3231363030203D205554432D34
:1010A0003620284353542C204D4454290D0A202027
:1010B0002020202020202020202020202020203B15
:1010C0002020202D3235323030203D205554432D04
:1010D0003720284D53542C20504454290D0A2020E9
:1010E0002020202020202020202020202020203BE5
:1010F0002020202D3238383030203D205554432DCB
:10110000382028505354290D0A0D0A3B20496E6996
:101110007469616C697A6174696F6E0D0A0D0A49B0
:101120006E69745F4D6F64653A2030202020202066
:101130003B205768656E2074686520466C7953695A
:1011400067687420697320706F7765726564206FBB
:101150006E0D0A202020202020202020202020206A
:10116000202020203B20202030203D20446F206E76
:101170006F7468696E670D0A2020202020202020CF
:101180002020202020202020203B20202031203D16
:10119000205465737420737065656368206D6F6497
:1011A000650D0A2020202020202020202020202023
:1011B000202020203B20202032203D20506C6179CF
:1011C0002066696C650D0A496E69745F46696C65D5
:1011D0003A203020202020203B2046696C65207476
:1011E0006F20626520706C617965640D0A0D0A3BA1
:1011F00020416C61726D2073657474696E67730D44
:101200000A0D0A3B205741524E494E473A2047505B
:1012100053206D6561737572656D656E74732064BE
:101220006570656E64206F6E2076657279207765D3
:10123000616B207369676E616C730D0A3B2020201F
:101240002020202020202072656365697665642057
:1012500066726F6D206F72626974696E6720736168
:1012600074656C6C697465732E20417320737563AB
:10127000682C20746865790D0A3B202020202020EE
:10128000202020206172652070726F6E6520746F5F
:1012900020696E746572666572656E63652C206187
:1012A0006E642073686F756C64204E4556455220FD
:1012B00062650D0A3B202020202020202020207263
:1012C000656C6965642075706F6E20666F72206C46
:1012D00069666520736176696E6720707572706FDC
:1012E0007365732E0D0A0D0A3B202020202020203C
:1012F000202020554E444552204E4F204349524312
:10130000554D5354414E4345532053484F554C443B
:1013100020544845534520414C41524D53204245AD
:101320000D0A3B202020202020202020205553453E
:101330004420544F20494E4449434154452044459C
:10134000504C4F594D454E54204F5220425245412A
:101350004B4F464620414C5449545544452E0D0AA6
:101360000D0A3B204E4F54453A20202020416C610D
:10137000726D20656C65766174696F6E7320617241
:101380006520676976656E20696E206D657465728B
:10139000732061626F76652067726F756E640D0AE7
:1013A0003B20202020202020202020656C657661B5
:1013B00074696F6E2C207768696368206973207385
:1013C000706563696669656420696E20445A5F458B
:1013D0006C65762E0D0A0D0A57696E5F41626F7655
:1013E000653A202020202030203B2057696E646F12
:1013F000772061626F7665206561636820616C614A
:10140000726D20286D290D0A57696E5F42656C6FF9
:10141000773A202020202030203B2057696E646FCF
:10142000772062656C6F77206561636820616C610D
:10143000726D20286D290D0A445A5F456C65763A15
:101440002020202020202030203B2047726F756E06
:101450006420656C65766174696F6E20286D20610B
:10146000626F766520736561206C6576656C290D09
:101470000A0D0A416C61726D5F456C65763A2020F9
:10148000202030203B20416C61726D20656C6576B8
:101490006174696F6E20286D2061626F76652067C8
:1014A000726F756E64206C6576656C290D0A416CEF
:1014B00061726D5F547970653A2020202030203BA6
:1014C00020416C61726D20747970650D0A202020B6
:1014D00020202020202020202020202020203B20F1
:1014E000202030203D204E6F20616C61726D0D0A0E
:1014F00020202020202020202020202020202020EC
:10150000203B20202031203D20426565700D0A20BF
:1015100020202020202020202020202020202020CB
:101520003B20202032203D20436869727020757076
:101530000D0A2020202020202020202020202020D4
:101540002020203B20202033203D204368697270FA
:1015500020646F776E0D0A2020202020202020207C
:1015600020202020202020203B20202034203D202F
:10157000506C61792066696C650D0A416C61726D11
:101580005F46696C653A2020202030203B20466968
:101590006C6520746F20626520706C617965640DE4
:1015A0000A0D0A3B20416C746974756465206D6F87
:1015B00064652073657474696E67730D0A0D0A3B68
:1015C000205741524E494E473A20475053206D65AF
:1015D00061737572656D656E747320646570656E98
:1015E00064206F6E2076657279207765616B207359
:1015F00069676E616C730D0A3B202020202020203B
:1016000020202072656365697665642066726F6D5F
:10161000206F72626974696E6720736174656C6CA7
:10162000697465732E20417320737563682C207470
:101630006865790D0A3B20202020202020202020D2
:101640006172652070726F6E6520746F20696E74B0
:101650006572666572656E63652C20616E642073C9
:10166000686F756C64204E455645522062650D0AC0
:101670003B2020202020202020202072656C6965DE
:10168000642075706F6E20666F72206C69666520CD
:10169000736176696E6720707572706F7365732EF3
:1016A0000D0A0D0A3B20202020202020202020553C
:1016B0004E444552204E4F2043495243554D5354BA
:1016C000414E4345532053484F554C4420414C54C0
:1016D0004954554445204D4F44452042450D0A3B51
:1016E0002020202020202020202055534544205415
:1016F0004F20494E444943415445204445504C4FA6
:10170000594D454E54204F5220425245414B4F4671
:101710004620414C5449545544452E0D0A0D0A3B70
:10172000204E4F54453A20202020416C7469747536
:10173000646520697320676976656E2072656C61E7
:101740007469766520746F2067726F756E642065AA
:101750006C65766174696F6E2C0D0A3B2020202029
:101760002020202020207768696368206973207317
:10177000706563696669656420696E20445A5F45D7
:101780006C65762E20416C746974756465206D6F8C
:1017900064652077696C6C0D0A3B20202020202096
:1017A000202020206E6F742066756E6374696F6EE2
:1017B0002062656C6F772031353030206D2061629A
:1017C0006F76652067726F756E642E0D0A0D0A4183
:1017D0006C745F556E6974733A202020202031208C
:1017E0003B20416C74697475646520756E6974730F
:1017F0000D0A202020202020202020202020202012
:101800002020203B20202030203D206D0D0A20206C
:101810002020202020202020202020202020203BAD
:1018200020202031203D2066740D0A416C745F53E6
:101830007465703A20202020202030203B20416C0D
:10184000746974756465206265747765656E20617E
:101850006E6E6F756E63656D656E74730D0A202014
:101860002020202020202020202020202020203B5D
:1018700020202030203D204E6F20616C74697475EB
:1018800064650D0A0D0A3B2053696C656E63652023
:1018900077696E646F77730D0A0D0A3B204E4F54C3
:1018A000453A2020202053696C656E636520776976
:1018B0006E646F77732061726520676976656E204C
:1018C000696E206D65746572732061626F76652044
:1018D00067726F756E640D0A3B2020202020202047
:1018E000202020656C65766174696F6E2C207768A6
:1018F00069636820697320737065636966696564EC
:1019000020696E20445A5F456C65762E20546F6EB8
:1019100065730D0A3B2020202020202020202077E6
:10192000696C6C2062652073696C656E6365642008
:10193000647572696E672074686573652077696E77
:10194000646F777320616E64206F6E6C790D0A3B53
:1019500020202020202020202020616C61726D73C7
:101960002077696C6C2062652061756469626C65C2
:101970002E0D0A0D0A57696E5F546F703A202020B1
:101980002020202030203B2053696C656E63652049
:1019900077696E646F7720746F7020286D290D0A47
:1019A00057696E5F426F74746F6D3A20202020304B
:1019B000203B2053696C656E63652077696E646FA8
:1019C0007720626F74746F6D20286D290D0A001ADC
:1019D0000346006C007900530069006700680074DA
:1019E000002000470050005300000020034200691F
:1019F000006F006E006900630020004100760069FE
:101A0000006F006E006900630073000000040309AA
:101A10000409022000010100801B090400000208E3
:101A20000650000705830240000507050402400038
:101A3000051201100100000008D0166905210101FE
:101A400002DC010D0A4669726D7761726520766568
:101A50007273696F6E3A20763230313931313035F8
:101A60002D64697274790D0A00466C795369676850
:101A700074202D20687474703A2F2F666C79736906
:101A80006768742E63612F0D0A50726F63657373FC
:101A90006F722073657269616C206E756D6265721C
:101AA0003A2000808386898C8F9295999C9FA2A56D
:101AB000A8ABAEB1B4B6B9BCBFC2C4C7C9CCCFD154
:101AC000D3D6D8DADCDFE1E3E5E7E8EAECEEEFF1E4
:101AD000F2F3F5F6F7F8F9FAFBFCFDFDFEFEFFFF69
:101AE000FFFFFFFFFFFFFFFFFEFEFDFDFCFBFBFA1C
:101AF000F9F8F7F5F4F3F1F0EEEDEBE9E8E6E4E2FE
:101B0000E0DEDBD9D7D5D2D0CDCBC8C6C3C0BDBBF4
:101B1000B8B5B2AFACA9A6A3A09D9A9794918E8BAD
:101B20008784817E7B7874716E6B6865625F5C59B7
:101B30005653504D4A4744423F3C393734322F2D9B
:101B40002A282624211F1D1B1917161412110F0EE7
:101B50000C0B0A0807060504040302020101000039
:101B6000000000000000000001010202030405065D
:101B70000708090A0C0D0E1011131517181A1C1E50
:101B800020232527292C2E303336383B3D40434631
:101B9000494B4E5154575A5D6063666A6D70737657
:101BA000797C8074696D652C6C61742C6C6F6E2C03
:101BB000684D534C2C76656C4E2C76656C452C76B6
:101BC000656C442C684163632C764163632C7341DC
:101BD00063632C68656164696E672C634163632C81
:101BE0006770734669782C6E756D53560D0A2C28F4
:101BF000646567292C28646567292C286D292C28A1
:101C00006D2F73292C286D2F73292C286D2F732984
:101C10002C286D292C286D292C286D2F73292C2810
:101C2000646567292C28646567292C2C0D0A00003F
:101C30000435046F04AD04F1043A058A05E105405A
:101C400006A8061A0798070011241FBECFEFD0E19F
:101C5000DEBFCDBFE4E5FDE08AEC90E101C08193F9
:101C6000EF3FF907E0F3D9F312E0A0E0B1E0EEEBCB
:101C7000FBEA02C005900D92A437B107D9F72DE019
:101C8000A4E7B2E001C01D92A435B207E1F72AD063
:101C90000C94DD550C94000084B7877F84BF0FB689
:101CA000F894A895809160008861809360001092FC
:101CB00060000FBEE1E6F0E080E8808310820E94C1
:101CC000CB4D87B1806687B988B18F7988B967E7CE
:101CD00072E080E00E94AA3B0E94E52D809376028C
:101CE0000C94021BCDB7DEB7AC970FB6F894DEBFED
:101CF0000FBECDBF81E090E00E94BE55182F84B189
:101D0000806684B9133041F460E081E090E00E9485
:101D1000CF55E0E0F8E70995BFDF61E0610F81E0B2
:101D200090E00E94CF5584EF91E0EFECF7E031971F
:101D3000F1F700C000000197C1F760E081E090E09A
:101D40000E94CF558091D90080FF25C080917602F6
:101D5000811102C00E946E4D8CE090E00E94BE1C7A
:101D600010E400E2439A80917602882321F00E94D9
:101D7000BD2D0E945550339B0BC00093D90B809111
:101D8000D90B98B19F7998B998B1892B88B9EACFC6
:101D90001093D90BF4CF0E946E4D80917602882368
:101DA00009F450C080E28093D90B8091D90B98B18F
:101DB0009F7998B998B1892B88B9113009F0A3C0DF
:101DC00066EA71E0CE0147960E945A44811193C0A1
:101DD000BE016F5F7F4FCE0147960E94BA448111CA
:101DE0008AC08A85882309F486C08E3289F3898562
:101DF00084FDEECF86EA91E00E94394241E0BE01C7
:101E0000665F7F4F8AED9BE00E94BE3B8111E0CF71
:101E10004091E00B5091E10B6091E20B7091E30B6C
:101E20008091E40B9091E50BA091E60BB091E70B4C
:101E3000481759076A077B0739F48AED9BE00E942F
:101E40002E42C6CF80E4AFCF4AED5BE069E870E098
:101E50008CE09CE00E9459466EEA71E08CE09CE0C8
:101E60000E946355FC01E45FF34F108260EB71E068
:101E70008CE09CE00E9431557C01892B49F260EB9B
:101E800071E090E080E00E9431558C01892B09F4CB
:101E9000BFCF6CEE70E0C7010E942855892B09F076
:101EA000B7CF4DE050E062E070E0CE010A960E94AC
:101EB000C655B80185E99CE00E945C5560EF71E071
:101EC00085E99CE00E94515568D60E946D1C85E909
:101ED0009CE00E94081C0E94471C0E94711C60D656
:101EE00084EF91E0EFECF7E03197F1F700C00000EC
:101EF0000197C1F78DCF4DE050E062E070E08BECD0
:101F000091E00E94C65549D667D60FD449D645D62A
:101F10000E946D1C80918707813061F510E310935A
:101F2000950C1092960C60EF71E085E99CE00E94A0
:101F3000515585E99CE00E94081C0E94471C1F5FC8
:101F40001A3369F784EB91E00E94081C0E94471C39
:101F50008CEB91E00E94081C0E94471C0E94711C9F
:101F60001FD60E9431180E94D9280E94B6290E94CB
:101F7000E01BFBCF823091F76EE27DE085E99CE0CB
:101F80000E945C5560EF71E085E99CE00E9451552C
:101F900085E99CE0DFCF2F923F924F925F926F9244
:101FA0007F928F929F92AF92BF92CF92DF92EF92E9
:101FB000FF920F931F93CF93DF9300D000D000D0F8
:101FC000CDB7DEB76D8379830E943942082F811126
:101FD00030C041E06D8179818AED9BE00E94BE3B7B
:101FE000082F811126C010E028E0222E312C34E683
:101FF000432E512C612C712C4EE0942E56E0852EF0
:102000004091E00B5091E10B6091E20B7091E30B7A
:102010008091E40B9091E50BA091E60BB091E70B5A
:10202000481759076A077B07F1F48AED9BE00E9485
:102030002E42802F26960FB6F894DEBF0FBECDBF7E
:10204000DF91CF911F910F91FF90EF90DF90CF9094
:10205000BF90AF909F908F907F906F905F904F90C8
:102060003F902F9008954AED5BE069E870E08CE0C6
:102070009CE00E9459466EEA71E08CE09CE00E9470
:102080006355FC01E45FF34F108266EC71E08CE075
:102090009CE00E9431558D839E832D813E81232BB0
:1020A00009F4AECF66EC71E090E080E00E9431551B
:1020B0005C01009709F4A4CF0E9402556B017C01DA
:1020C00039E0C316D104E104F10490F468EE71E044
:1020D0008D819E810E942855892B11F4C092270181
:1020E000A5E0CA16D104E104F10408F412C313C038
:1020F00084E6C816D104E104F1040CF403C363EED2
:1021000071E08D819E810E942855892B21F4D09207
:102110002601C09225016AED71E08D819E810E94A9
:102120002855892B41F4C0929107D0929207E092F2
:102130009307F092940766ED71E08D819E810E9475
:102140002855892B41F4C0922001D0922101E092C0
:102150002201F092230193E0C916D104E104F104B5
:1021600000F56FEC71E08D819E810E942855892BCE
:1021700011F4C0920E0168EC71E08D819E810E9485
:102180002855892B39F4C1018C199D0990930101BF
:1021900080930001B5E0CB16D104E104F10488F08E
:1021A00006C0A9E0CA16D104E104F10420F3D70166
:1021B000C6010897A109B1090297A105B10508F068
:1021C0009BC061EC71E08D819E810E942855892B16
:1021D00009F49AC067EB71E08D819E810E942855B9
:1021E000892B41F4C0921B01D0921C01E0921D0189
:1021F000F0921E016DEA71E08D819E810E9428554A
:10220000892B41F4C0921701D0921801E092190174
:10221000F0921A01F7FC34C064EA71E08D819E816E
:102220000E942855892B91F4A1E4B0E0A701960102
:102230000E94F854A30192010E94C75420931301F5
:102240003093140140931501509316016BE971E02E
:102250008D819E810E942855892B91F4A1E4B0E0E4
:10226000A70196010E94F854A30192010E94C7544D
:1022700020930F01309310014093110150931201EC
:10228000F2E0CF16D104E104F10408F040C062E9A5
:1022900071E08D819E810E942855892B11F4C09296
:1022A000900769E771E08D819E810E942855892BF6
:1022B00069F4A8EEB3E0CA9EC001CB9E900DDA9EF1
:1022C000900D112490938D0780938C07B9E0CB1665
:1022D000D104E104F10408F568E671E08D819E8186
:1022E0000E942855892BC9F4C1018C199D0990932E
:1022F000CE048093CD0411C0EBE0CE16D104E104EE
:10230000F10409F067CF5DCFC0921F0163CF21E2D6
:10231000C216D104E104F10420F26FE571E08D8171
:102320009E810E942855892B41F4C0920801D092C9
:102330000901E0920A01F0920B0166E571E08D81DE
:102340009E810E942855892B41F4C0928107D0922A
:102350008207E0928307F0928407E2E0CE16D10470
:10236000E104F10450F46EE471E08D819E810E94DD
:102370002855892B11F4C0920D0167E471E08D811D
:102380009E810E942855892B31F5A8EEB3E0A70164
:1023900096010E94F85469837A838B839C836093AF
:1023A0007C0770937D0780937E0790937F0767E497
:1023B00071E08D819E810E942855892B61F489816D
:1023C0009A81AB81BC818093780790937907A09321
:1023D0007A07B0937B076DE371E08D819E810E9447
:1023E0002855892B71F4A8EEB3E0A70196010E944D
:1023F000F85460937C0770937D0780937E079093D9
:102400007F0763E371E08D819E810E942855892BAF
:1024100071F4A8EEB3E0A70196010E94F85460930E
:1024200078077093790780937A0790937B076BE224
:1024300071E08D819E810E942855892B71F4A8EE50
:10244000B3E0A70196010E94F85460936E07709361
:102450006F07809370079093710760E071E08D8142
:102460009E810E942855892B41F4C092AE04D092DF
:10247000AF04E092B004F092B10493E0C916D10425
:10248000E104F10410F566EF70E08D819E810E94F9
:102490002855892B11F4C0928707A2E0CA16D104EF
:1024A000E104F10409F022C166EC70E08D819E81A7
:1024B0000E942855892B59F4C0928807D092890729
:1024C000E0928A07F0928B0702C0F7FEEDCF6CEE28
:1024D00070E08D819E810E942855892B39F4F50189
:1024E0001086B5018EE29DE00E945C5560E271E0CD
:1024F0008D819E810E942855892B19F58091800736
:102500008A30F8F410FD03C01092800711608091AA
:1025100080078F5F809380078150990B989EF00110
:10252000999EF00D1124EE55F34FA8EEB3E0A701EC
:1025300096010E94F854608371838283938314828E
:10254000158265E171E08D819E810E942855892B5D
:1025500071F4809180078B3050F48150990B989ED4
:10256000F001999EF00D1124EE55F34FC4826AE0FC
:1025700071E08D819E810E942855892B99F42091CC
:1025800080072B3078F4D50118961C922150330B1C
:10259000929EC001939E900D1124B5018955934FD1
:1025A0000E945C5564EE70E08D819E810E942855EA
:1025B000892B09F5809172078230E8F411FD03C080
:1025C000109272071260E0917207EF5FE09372075A
:1025D000E150FF0B93E0EE0FFF1F9A95E1F7E95CE6
:1025E000F24FA8EEB3E0A70196010E94F854608371
:1025F00071838283938369ED70E08D819E810E9457
:102600002855892BB9F4E0917207E33098F4E15032
:10261000FF0B83E0EE0FFF1F8A95E1F7E95CF24FB5
:10262000A8EEB3E0A70196010E94F8546483758375
:10263000868397836AE871E08D819E810E94285588
:10264000892B11F580918F078330F0F412FD03C0C0
:1026500010928F07146080918F078F5F80938F0790
:102660008150990B889EF001899EF00D1124E6504F
:10267000F44FC082B1E0B18381E090E0A0E0B0E02F
:1026800082839383A483B58361E871E08D819E8109
:102690000E942855892B71F480918F07843050F463
:1026A0008150990B889EF001899EF00D1124E6500F
:1026B000F44FC18262E771E08D819E810E942855AE
:1026C000892B09F09DCC80918F07843008F098CC3D
:1026D0008150990B889EF001899EF00D1124E650DF
:1026E000F44FC282D382E482F5828ACC6FEC70E030
:1026F0008D819E810E942855892B09F0D5CEC092EC
:102700000C01D2CE9BE0C916D104E104F10409F01A
:1027100002CD6EED71E08D819E810E942855892B3E
:1027200009F0F9CCC0922401F6CCCF93DF936CEC86
:1027300071E087ED91E02FDC882331F187ED91E0A6
:102740000E9439424AE06CEC71E08AED9BE00E9405
:10275000BE3BCEEED1E0882371F080E48093D90BAC
:1027600088B18F7988B9469ADF91CF9108956AED43
:102770007BE00E94A746FE01849121968111F7CF4C
:102780008AED9BE00E942E424DE050E062E070E056
:1027900085E99CE00E94AE558091950C81508E3F5A
:1027A00018F765E97CE086EA91E0DF91CF91F3CB01
:1027B0009C01DA01832F99278230910529F183301A
:1027C000910549F0019791F482E190E021E33AE12B
:1027D0002D933C930895C9019927213061F08230EF
:1027E000910579F0EDE0FAE1892B39F090E080E095
:1027F00030E020E0EDCFEBEEF9E1849190E09F0135
:10280000E7CFEFECF9E1F9CF80E290E021E13AE1A6
:10281000DFCFCF93DF9300D000D0CDB7DEB780916C
:10282000A9049091AA04A091AB04B091AC04BC019E
:10283000CD010F900F900F900F90DF91CF910895E1
:10284000CF93DF93EC01FE0184912196811103C0A7
:10285000DF91CF9108956AED7BE00E94A746F3CF08
:102860008F929F92AF92BF92CF92DF92EF92FF92A0
:102870000F931F93CF93DF93CDB7DEB72C970FB68F
:10288000F894DEBF0FBECDBF4A015B01122FB7FE29
:1028900007C044275527BA01481959096A097B0915
:1028A00049875A876B877C87DC01EE926D018EE247
:1028B000F82E89859A85AB85BC85181619061A06E7
:1028C0001B0634F1111624F1D6018C918E3211F0D1
:1028D0008E1104C0F60180E382936F01B7FE04C03D
:1028E000F6018DE282936F01C6012C960FB6F89423
:1028F000DEBF0FBECDBFDF91CF911F910F91FF9033
:10290000EF90DF90CF90BF90AF909F908F90089501
:102910002AE030E040E050E069857A858B859C852F
:102920000E94C75429833A834B835C836D837E83E3
:102930008F839887F601605D629389819A81AB816C
:10294000BC8189879A87AB87BC87115029F4002303
:1029500019F0F6013297F0826F01ABCFAF92BF92C0
:10296000CF92DF92EF92FF920F931F93CF93DF935B
:10297000CDB7DEB768970FB6F894DEBF0FBECDBFF8
:102980009F878E87688B498B2A8B0B8BEC8A809173
:10299000AD048111EAC08E859F8566D16D8B7E8BDB
:1029A0008F8B988F8091AE049091AF04A091B0046A
:1029B000B091B1042D893E894F89588D280F391F58
:1029C0004A1F5B1F2D8B3E8B4F8B588FAE014C5E89
:1029D0005F4F5A01CE0143966C019E012E5E3F4F20
:1029E00079018E010F5E1F4F225031094650510967
:1029F0006D897E898F89988D0FD28E859F853889C4
:102A00002989432F50E070E060E0E5E1440F551F55
:102A1000661F771FEA95D1F7C22ED12CF12CE12C3D
:102A20007601DD24CC244C0D5D1D6E1D7F1DCA88F2
:102A3000D12CF12CE12CABE0CC0CDD1CEE1CFF1CEE
:102A4000AA95D1F74C0D5D1D6E1D7F1DCB88D12C35
:102A5000F12CE12CB5E0CC0CDD1CEE1CFF1CBA9572
:102A6000D1F74C0D5D1D6E1D7F1DEC89E6954E0F57
:102A7000511D611D711D6C01ECEBCE1AE7E0DE0A01
:102A8000F12CE12C19E1CC0CDD1CEE1CFF1C1A957D
:102A9000D1F74C0D5D1D6E1D7F1D4093A904509311
:102AA000AA046093AB047093AC0464E670E00E94E7
:102AB0007E548E879F871AE0612F0E947254805D3A
:102AC0008983905D9A830DE20B83832F0E94725459
:102AD000805D8C83905D9D830E83822F0E94725453
:102AE000805D8F83905D9887198687ED91E00E94C5
:102AF0003942CE0101960E941045CE0101960E94F6
:102B000039422C893B898A89612F0E947254805DE9
:102B10008983905D9A830B83832F0E947254805D1A
:102B20008C83905D9D830E83822F0E947254805D02
:102B30008F83905D98878EE2898783E68A8783E713
:102B40008B8786E78C871D864AE0BE016F5F7F4FCB
:102B50008AED9BE00E94BE3B8823C1F080E4809315
:102B6000D90B88B18F7988B9469A68960FB6F894D0
:102B7000DEBF0FBECDBFDF91CF911F910F91FF90B0
:102B8000EF90DF90CF90BF90AF90089581E0809359
:102B9000AD04EBCF8091AD0408953A9A429A08951E
:102BA0003A9A42980895CF93DF93EC01FE01849105
:102BB0002196811103C0DF91CF9108956AED7BE0EA
:102BC0000E94A746F3CF6AED7BE08A3018F0895A5D
:102BD0000C94A746805DFCCF0F931F93CF93DF9398
:102BE0004AE069ED71E08AED9BE00E94BE3B8111F5
:102BF00020C089E69AE1D7DFCEE0D0E001E2FE0115
:102C0000009357001491812F82958F70DCDF812F04
:102C10008F70D9DF2196C931D10589F783E49AE114
:102C2000C2DF8AED9BE0DF91CF911F910F910C9451
:102C30002E42DF91CF911F910F9108959C01237037
:102C40003327232B69F464E670E00E949254462FE8
:102C5000572F892B39F44370552781E0452B19F004
:102C600080E0089581E008954F925F926F927F9285
:102C7000AF92BF92CF92DF92EF92FF920F931F938A
:102C8000CF93DF93CDB7DEB728970FB6F894DEBFAA
:102C90000FBECDBFFC01162FA22EBE2C9C01205DC5
:102CA00037403A832983512C412C232BA9F0815D95
:102CB00097402C0197FF03C033E0430E511C5594FD
:102CC0004794559447946CE97FEF0E949254460EC6
:102CD000571E8FEF481A580A2DE631E0A981BA81B4
:102CE0000E94F25469837A838B839C83052C000CA9
:102CF00066087708460E571E681E791E50E0DA01F6
:102D00001197BA83A983133008F054C0113029F009
:102D10009A01225E3F4F3A83298329813A816901D2
:102D2000330FEE08FF08C40CD51CE61CF71C2A2D37
:102D300030E0A0E1BEE00E94E35469837A838B8394
:102D40009C83202F30E0ACE3B0E00E94E3542B01E1
:102D50003C014B0C511C611C711C89819A81AB8117
:102D6000BC81480E591E6A1E7B1EA701960160E8B1
:102D700071E581E090E00E946354DC01CB01840D99
:102D8000951DA61DB71DBC01CD0128960FB6F89460
:102D9000DEBF0FBECDBFDF91CF911F910F91FF908E
:102DA000EF90DF90CF90BF90AF907F906F905F904B
:102DB0004F900895CF0142DFC82ED12C3BE3C30EC4
:102DC000D11C89819A818C0D9D1D9A838983A12FA5
:102DD000A350BB0BCD01159734F029813A812756BA
:102DE0003F4F3A83298365E070E00E9492549C0132
:102DF000359527959DE3929F6001939FD00C1124F8
:102E0000A981BA81AC0DBD1DBA83A98380FF85CF8E
:102E10005F96BA83A98381CF4F925F926F927F9220
:102E20008F929F92AF92BF92CF92DF92EF92FF92DA
:102E30000F931F93CF93DF93CDB7DEB760970FB695
:102E4000F894DEBF0FBECDBF2A01390148018701CA
:102E500020E831E541E050E00E94A5542D873E87EF
:102E60004F87588B69877A878B879C872CE330E064
:102E700040E050E00E94C75429833A834B835C832F
:102E8000D5016C936CE370E089819A810E94925421
:102E9000F6018083F80160832DEA3EE840E050E0CF
:102EA0006D857E858F8598890E94C75429833A83D2
:102EB0006D837E838F83988789819A8124E6289FFA
:102EC0007001299FF00C11248D819E81AF81B885FE
:102ED00089879A87AB87BC8725EB35E040E050E0D7
:102EE000BC01CD010E94C75429833A836D837E8340
:102EF00009811A81000F111F000F111F0E0D1F1DD8
:102F00008D819E810536110508F44BC0019621E0A4
:102F100030E04CE651E02115310511F04DE651E06D
:102F20004817590768F46DE671E0821B930B0E9405
:102F30009254A82FB92F060F171FCD0130E020E0C3
:102F40000053184FD2010D931C93255C3F4F8217FD
:102F5000930780F56FE170E00E949254A82FF3016F
:102F60006083F401A083D3018C918F5F8C93808167
:102F70008F5F808360960FB6F894DEBF0FBECDBF23
:102F8000DF91CF911F910F91FF90EF90DF90CF9045
:102F9000BF90AF909F908F907F906F905F904F9079
:102FA000089551E040E00436110509F450E0252F62
:102FB000342FAFCF69E970E0821B930B0E949254CB
:102FC000A82FB92F262F220F220F122F160F6DE3D5
:102FD00070E0CD010E949254A82FB92F062F000F48
:102FE0006FE170E0CD010E949254A82F22E0260FDD
:102FF000210F200FF3012083B4CF1F920F920FB641
:103000000F9211242F933F934F935F936F937F936E
:103010008F939F93AF93BF93EF93FF93F7D20E9449
:1030200090288091B2049091B304892B49F080914B
:10303000B2049091B30401979093B3048093B204C7
:10304000FF91EF91BF91AF919F918F917F916F9180
:103050005F914F913F912F910F900FBE0F901F9056
:1030600018958AE08093910082E08093710088EE49
:1030700093E0909399008093980008959C018FB7F6
:10308000F8943093B3042093B2048FBF08952FB700
:10309000F8948091B2049091B3042FBF0895CF9219
:1030A000DF92EF92FF92CF93DF9300D0CDB7DEB7E0
:1030B000B0E0A0E0C090BF04D090C004E090C10494
:1030C000F090C2048C159D05AE05BF0508F46C0197
:1030D0006091FB047091FC0473706752784F9E01FD
:1030E0002F5F3F4FA6018FEC94E00E94EA3C49819C
:1030F0005A818091BF049091C004A091C104B09105
:10310000C204841B950BA109B1098093BF0490935D
:10311000C004A093C104B093C2047091CD0480E8B0
:1031200090E0072E02C0959587950A94E2F760E833
:10313000681B30E020E04217530749F52FB7F89499
:103140008091FB049091FC0449815A81840F951F62
:103150009093FC048093FB048091BF049091C00481
:10316000A091C104B091C204892B8A2B8B2B29F426
:103170008091C4048E7F8093C4042FBF0F900F9062
:10318000DF91CF91FF90EF90DF90CF900895E09185
:10319000FB04F091FC04E20FF31FF370E752F84FC9
:1031A000808190E0072E02C0959587950A94E2F7FA
:1031B000E091FB04F091FC04E20FF31FF370E7527F
:1031C000F84F860F80832F5F3F4FB5CF2F923F92EE
:1031D0004F925F926F927F928F929F92AF92BF9227
:1031E000CF92DF92EF92FF920F931F93CF93DF93D3
:1031F00000D000D000D0CDB7DEB78091EF04882397
:10320000E1F0813009F4B6C026960FB6F894DEBF1F
:103210000FBECDBFDF91CF911F910F91FF90EF9027
:10322000DF90CF90BF90AF909F908F907F906F90E6
:103230005F904F903F902F9008958FB7F894209112
:10324000FD043091FE048FBF8091FB049091FC043B
:103250003C5F0091F1041091F204281B390B3E836E
:103260002D830217130710F41E830D838091B4047D
:103270009091B504C090F704D090F804E090F90460
:10328000F090FA042091F3043091F4044091F50495
:103290005091F6042090000160E870E0022C02C01A
:1032A000759567950A94E2F770E8372E361A46014D
:1032B000570170E060E029013A01480C591C6A1C72
:1032C0007B1CAD81BE81A617B707B1F59093B504FD
:1032D0008093B4040E94F85469837A838B839C831F
:1032E000C60ED71EE81EF91EC092F704D092F8044D
:1032F000E092F904F092FA04FD010A1B1B0B1093F3
:10330000F2040093F1049FB7F8942091FB043091EC
:10331000FC04E20FF31FF093FC04E093FB04209104
:10332000F1043091F204232B29F48091C4048E7FA0
:103330008093C4049FBF68CFE92FFF27ED55F54E5A
:10334000E4918A0D9B1DA091FB04B091FC04A60F93
:10335000B71FB370A752B84FF0E0022C02C0F5952A
:10336000E7950A94E2F7E30DEC936F5F7F4F53010B
:103370004201A1CF0E94E047892B09F445CF8FB7C6
:10338000F8942091FD043091FE048FBF3C5F3A8396
:1033900029838091FB049091FC042817390709F4D4
:1033A00033CF8091FB049091FC04281B390B21380A
:1033B000310508F053C08091FB049091FC044981D1
:1033C0005A81481B590B5A8349832091FB04309141
:1033D000FC048091FB049091FC04232F3327269555
:1033E0002695A981BA818A0F9B1F892F99278695D7
:1033F00086952817390799F08091FB049091FC0479
:103400009C6FA80FB91FBA83A9832091FB04309148
:10341000FC04337080E094E0821B930B40DE8091CB
:10342000C40480FFF1CE89819A8126960FB6F89464
:10343000DEBF0FBECDBFDF91CF911F910F91FF90E7
:10344000EF90DF90CF90BF90AF909F908F907F9044
:103450006F905F904F903F902F9021CE80E890E04A
:103460009A838983B2CFCF939091F00491112FC0AA
:10347000C1E0C093F0048093EF048091C4048160A4
:103480008093C4048FB7F8941092FE041092FD0448
:103490001092FC041092FB048FBF98DE8FEF90E037
:1034A00090938500809384008091D90790E0909359
:1034B0008B0080938A00909389008093880081EE2E
:1034C0008093800089E080938100C0936F00CF914A
:1034D00008951F921FB61F9211242F933F938F932D
:1034E0009F93EF93FF938091BE0491E0980F909388
:1034F000BE04837019F18091BC049091BD042091A9
:10350000BA043091BB04820F931F9093BD04809343
:10351000BC048091BD0490E090938B0080938A005E
:103520009093890080938800FF91EF919F918F91F4
:103530003F912F911F901FBE1F9018952091FD0461
:103540003091FE048091FB049091FC042817390708
:10355000E9F48091C40480FF0DC08091B80490917B
:10356000B9049093BD048093BC041092BB041092E4
:10357000BA04CFCF109280001092810010926F0099
:103580008091C40482608093C404C3CF2091B804A6
:103590003091B9043093BD042093BC04E091FD0444
:1035A000F091FE04F370E752F84F808190E0982F7D
:1035B00088279093B9048093B80482179307A0F0EA
:1035C000821B930B96958795969587959093BB0450
:1035D0008093BA048091FD049091FE04019690932B
:1035E000FE048093FD0495CF281B390B3695279553
:1035F000369527953195219531093093BB04209359
:10360000BA04E8CF84B1806684B908958091C30478
:103610002091B6043091B704811116C08091C50481
:103620009091C604892B81F08091C5049091C604C5
:1036300044275527421B530B8417950728F0909178
:10364000C40494609093C4048091C5049091C6040E
:10365000820F931F9093B7048093B60408959C0142
:103660008FB7F8943093C6042093C5048FBF089594
:103670009C018FB7F8943093CC042093CB048FBF78
:103680000895462F572FBC018FB7F8944093C70475
:103690005093C8046093C9047093CA048FBF0895FF
:1036A0008091F004882381F01092800010928100B4
:1036B00010926F008091EF04813021F48FEC94E040
:1036C0000E942E421092F0049FB7F8948091C40497
:1036D0008D7F8093C4048091C4048E7F8093C40442
:1036E0009FBF0895CF92DF92EF92FF920F931F93A7
:1036F000CF93DF9300D000D000D0CDB7DEB78C01E0
:103700006A017B012D833E8380910001909101012C
:10371000089708F046C0C4DF9801AAEABCE00E94FE
:10372000E35469837A838B839C83DC01CB01A353AD
:10373000BE4F22E0880F991FAA1FBB1F2A95D1F701
:103740008093F7049093F804A093F904B093FA04DB
:1037500034E0CC0CDD1CEE1CFF1C3A95D1F7C09276
:10376000F304D092F404E092F504F092F6048D8113
:103770009E8196958795969587959093F204809370
:10378000F10480E026960FB6F894DEBF0FBECDBFE1
:10379000DF91CF911F910F91FF90EF90DF90CF902D
:1037A00062CE26960FB6F894DEBF0FBECDBFDF9176
:1037B000CF911F910F91FF90EF90DF90CF900895E0
:1037C0008091C40482FF1BC08091F00481110FC05E
:1037D0004091C7045091C8046091C9047091CA0413
:1037E0008091CB049091CC0422E43FE07BDF9FB733
:1037F000F8948091C4048B7F8093C4049FBF809110
:10380000C40481FD4DDF8091C40480FDDFCC0895A8
:103810000F931F93CF93DF9300D0CDB7DEB78C010A
:103820008091CD049091CE04089750F539DF86EE53
:1038300091E00E94394241E0B8018FEC94E00E948F
:10384000BE3B81111DC048E250E060E070E08FECAB
:1038500094E00E9493429E012F5F3F4F44E050E06E
:103860006FEB74E08FEC94E00E94EA3C4CE250E095
:1038700060E070E08FEC94E00E94934281E0F3DD21
:103880000F900F90DF91CF911F910F91089580912C
:10389000F004811101C0089593DFF9CF4FB7F89478
:1038A0002091FB043091FC048091FD049091FE0472
:1038B0004FBF4091F004442341F0281B390B81E0B5
:1038C0002138334018F480E0089581E00895909104
:1038D000F00481E0911180E0089581E08093C304B9
:1038E00008951092C30408952F932FB72F938F93A9
:1038F0009F93EF93FF938091C8009091CE00E09149
:103900000105EF5F209100052E1789F08871E09383
:103910000105F0E0EC5FFA4F90838093FF04FF9184
:10392000EF919F918F912F912FBF2F91189582E04A
:10393000F4CF8F938FB78F939F93EF93FF939091D3
:10394000030580910205981799F0E0910205EF5F59
:10395000EF73E0930205F0E0EC5FF94F8081809314
:10396000CE00FF91EF919F918F918FBF8F9118950E
:103970008091C9008F7D8093C900F3CF9C01109284
:10398000030510920205109201051092000597FFA1
:1039900004C082E08093C8003F773093CD0020932D
:1039A000CC0088E98093C90086E08093CA0008951E
:1039B0009091010580910005981791F0E091000524
:1039C000EF5FE0930005F0E0EC5FFA4F208190910B
:1039D000FF04892F90E0982F8827820F911D08956A
:1039E00080E091E00895909103059F5F9F7320917F
:1039F00002052917E1F3E92FF0E0EC5FF94F80832E
:103A0000909303058091C80080648093C8008091E2
:103A1000C90080628093C90008958091C8008074B5
:103A200090E00895982F80914C06843009F465C089
:103A300060F4823009F449C0833009F450C088230F
:103A4000C1F18130E1F180E00895873009F490C040
:103A500030F5853009F463C08630A9F72091480617
:103A600030914906A9014F5F5F4F5093490640933B
:103A700048062B56384FF901908380914A06980FDB
:103A800090934A0680914B06980F90934B06809135
:103A9000C9079091CA0748175907A9F65BC0883033
:103AA00091F681E020914B06291380E010924C069C
:103AB0000895953B41F691E090934C06089582E07D
:103AC000923651F010924C06BECF9093CC07909353
:103AD0004B0690934A0683E080934C06B4CF9093B4
:103AE000CB0780914A06980F90934A0680914B0627
:103AF000980F90934B0684E0EFCF292F30E030935E
:103B0000CA072093C90780914A06980F90934A06E6
:103B100080914B06980F90934B0685E0DDCF292FBF
:103B200030E0322F22274091C9075091CA07240F55
:103B3000351F3093CA072093C90780914A06980F12
:103B400090934A0680914B06980F90934B0621154F
:103B5000310511F487E0C0CF2533310508F0B2CF2D
:103B600086E080934C0610924906109248066BCF6F
:103B700080914A068913A6CF88E0AECFEF92FF92DC
:103B80000F931F93CF93DF9300D000D000D0CDB719
:103B9000DEB74D835E832DE26115710581059105C8
:103BA000B1F42D813E8180E3D9018D93BE83AD8335
:103BB0008D819E8126960FB6F894DEBF0FBECDBFD5
:103BC000DF91CF911F910F91FF90EF90089597FF94
:103BD0000DC0ED81FE812193909580957095619542
:103BE0007F4F8F4F9F4FFE83ED83D6CF683EF3E02C
:103BF0007F07810591050CF486C028EE33E040E094
:103C000050E00E94C75429833A834B835C837B0135
:103C10008C014D815E8169817A818B819C81AEDFCF
:103C20008D839E838BE6AD81BE818D93BE83AD83F4
:103C3000B701C8016436710581059105ECF024E6F1
:103C400030E040E050E00E94C75429833A834B8320
:103C50005C837B018C014D815E8169817A818B81DE
:103C60009C818CDF8D839E8388E6ED81FE8181932C
:103C7000FE83ED83B701C8016115710581059105CA
:103C800009F496CF0D811E816A3071058105910579
:103C900054F42D813E812F5F3F4F3E832D83605D25
:103CA000D8016C9385CFED81FE813296FE83ED8342
:103CB00064317105810591053CF424E7D8012C930A
:103CC0006A5D11966C9374CF28E7F80120832AE08F
:103CD00030E040E050E00E94C754205DD8011196CA
:103CE0002C9311979B01AC01232B242B252B09F43A
:103CF0005FCFA8014D5F5F4F5E834D83862F805D50
:103D000012968C9355CF64367105810591050CF49C
:103D1000B9CF95CF4F925F926F927F92AF92BF9241
:103D2000CF92DF92EF92FF920F931F93CF93DF9387
:103D3000CDB7DEB72A970FB6F894DEBF0FBECDBF62
:103D40007C014D835E836901580180910D0120E063
:103D500034E08823A9F0D70118960D911D912D917B
:103D60003C911B97EFE2FCE137FD08C001151105FE
:103D7000B0EB2B0731053CF1E5E4FCE125913491F2
:103D8000633009F409C108F051C0613009F4C1C0C1
:103D9000623009F4C4C0662309F499C02A960FB6AC
:103DA000F894DEBF0FBECDBFDF91CF911F910F9171
:103DB000FF90EF90DF90CF90BF90AF907F906F908B
:103DC0005F904F900895D901C80144E1B595A7953A
:103DD000979587954A95D1F7AC01440F551FFA0185
:103DE000E15DF34E85919491FA01EF5CF34E4591BC
:103DF0005491EAE03595279517950795EA95D1F7FF
:103E000028013901E3E05E2266247724481B590B20
:103E1000449D9001459D300D549D300D1124232F5C
:103E2000332726952695280F391FAACF643009F429
:103E3000C3C06B3009F0B2CFF70166A177A180A5AE
:103E400091A50E94E0526B018C01D7015E966D91A5
:103E50007D918D919C9191970E94E0529601A801CD
:103E600069837A838B839C8369817A818B819C812E
:103E70000E94F2512BED3FE049E450E469837A83DC
:103E80008B839C8369817A818B819C810E944552BE
:103E900020E030E044E353E469837A838B839C839E
:103EA00069817A818B819C810E94985369837A838E
:103EB0008B839C8369817A818B819C810E94AD5226
:103EC000ED81FE81608371838283938367CFF701E5
:103ED00086A197A1A0A5B1A5AC01BD018AE0440FC0
:103EE000551F661F771F8A95D1F749835A836B83C5
:103EF0007C8350E040E069817A818B819C810E94C3
:103F0000C754AD81BE812D933D934D935C93139720
:103F100045CFF701868D978DA0A1B1A1DDCFF70127
:103F2000468C578C60A071A0411451046104710447
:103F300009F434CF26A137A140A551A5A0E1B7E2ED
:103F40000E94F85469837A838B839C83A301920136
:103F50000E94C754AD81BE812D933D934D935C93D8
:103F60001397F6012081318142815381A4E6B0E0AC
:103F70000E94F8546083718382839383F5012081CA
:103F8000318142815381A4E6B0E00E94F8546083FD
:103F900071838283938302CFF70146A057A060A468
:103FA00071A4411451046104710409F4F7CE268D03
:103FB000378D40A151A1C2CFF70182A193A1A4A145
:103FC000B5A18ACF2F923F924F925F926F927F92CC
:103FD0008F929F92AF92BF92CF92DF92EF92FF9219
:103FE0000F931F93CF93DF93CDB7DEB7E1970FB653
:103FF000F894DEBF0FBECDBF8A019B019091680689
:10400000409174075091750760917607709177071A
:10401000401751076207730751F00093740710931C
:1040200075072093760730937707109273072091D6
:104030007307822B809373078F3009F0CDC693707E
:1040400001E4909FC00111249C012659394F1901A8
:1040500080916706D90154969C91933009F0E0C78E
:104060008160809367063091800740906E07509082
:104070006F076090700770907107E0907C07F09078
:104080007D0700917E0710917F07EDA2FEA20FA38E
:1040900018A7E0907807F090790700917A071091BF
:1040A0007B07E9A6FAA60BA71CA702EA1CE01AA345
:1040B00009A31A8F098F20E02313C1C200E0909159
:1040C0007207E7E3FDE080E08913ECC219AA2091B2
:1040D00088073091890740918A0750918B07121603
:1040E0001306140615060CF087C080910C01A0E1A0
:1040F000B7E2882311F0A8EEBBE00E94F854698F64
:104100007A8F8B8F9C8FD1011896CD90DD90ED909A
:10411000FC901B974601570184189508A608B7081C
:104120008DA69EA6AFA6B8AAAAE0B0E0A50194010C
:104130000E94F8546D8F7E8F8F8F98A3898D9A8DF2
:10414000AB8DBC8DB595A795979587952D8D3E8D9B
:104150004F8D58A1280F391F4A1F5B1FCA01B90193
:10416000298D3A8D4B8D5C8D0E94C7542D8F3E8FCB
:104170004F8F58A3298D3A8D4B8D5C8D6D8D7E8D23
:104180008F8D98A10E946354698F7A8F8B8F9C8F3B
:104190002AE030E040E050E00E94C75449015A0153
:1041A000840C951CA61CB71C8DA19EA1AFA1B8A51F
:1041B000880D991DAA1DBB1D8C159D05AE05BF055B
:1041C000DCF0D501C40149A45AA46BA47CA48419D1
:1041D0009509A609B709C816D906EA06FB0664F0D0
:1041E0004DA45EA46FA478A810E6411613EE510604
:1041F00016E16106710414F4002371F080916106E8
:10420000811109C0E0910601F0910701108290E050
:1042100080E025DA45DA01E00093610680916606C8
:1042200080FF0DC1D1011896CD90DD90ED90FC90EE
:104230001B978091620690916306A0916406B091ED
:104240006506CDA6DEA6EFA6F8AA8C159D05AE05DF
:10425000BF0524F48DA79EA7AFA7B8ABC816D90693
:10426000EA06FB0614F46C017D0160908007009162
:104270006E0710916F072091700730917107098FB9
:104280001A8F2B8F3C8F90E080E0782E8615C0F53A
:10429000A9A1BAA14D915D916D917C91098D1A8D65
:1042A0002B8D3C8D400F511F621F731F0DA51EA546
:1042B0002FA538A940175107620773070CF446C2AF
:1042C0004C155D056E057F050CF040C22EE0289F61
:1042D000B001299F700D1124FB01EE55F34F84812D
:1042E000833009F42CC208F004C2813009F414C2EE
:1042F000823009F419C2E0910601F09107011082A1
:10430000209188073091890740918A0750918B0747
:1043100012161306140615060CF091C08091800742
:1043200078128DC060916206709163068091640678
:104330009091650669A37AA38BA39CA380916E07D5
:1043400090916F07A0917007B091710749A05AA092
:104350006BA07CA0481A590A6A0A7B0A00E640163C
:1043600003EE500606E1600671040CF468C0E091AB
:104370000601F09107018091670684709081892B76
:1043800019A9182B09F05BC04DA45EA46FA478A8EE
:1043900084149504A604B7040CF451C08C149D0435
:1043A000AE04BF040CF04BC0F101868D978DA0A127
:1043B000B1A1B7FF07C0B095A095909581959F4F8B
:1043C000AF4FBF4FC0900801D0900901E0900A01A3
:1043D000F0900B018C159D05AE05BF0584F1D10150
:1043E0009696CD90DD90ED90FC9099978091810705
:1043F00090918207A0918307B0918407C816D906CF
:10440000EA06FB06E4F081E596E0909307018093CD
:1044100006016D8D7E8D8F8D98A10E946354698FEA
:104420007A8F8B8F9C8F41E556E0A8DBFC01809151
:104430000C01882309F492C186E6808311828FEFF4
:104440009FEFAFEFBFE78D8B9E8BAF8BB88F409107
:104450009107509192076091930770919407498B4F
:104460005A8B6B8B7C8B4091200150912101609184
:104470002201709123014D875E876F87788B898732
:104480009A87AB87BC8780911B0190911C01A091FA
:104490001D01B0911E018D839E83AF83B8878091EB
:1044A000170190911801A0911901B0911A01898307
:1044B0009A83AB83BC838E01035F1F4F9E012F5EE7
:1044C0003F4FAE014B5E5F4F60912401C10122DC82
:1044D00060911F01683009F043C10C5011099E0121
:1044E0002B5F3F4FAE01475F5F4F60912401C101D9
:1044F00011DC89859A85AB85BC858F3FEFEF9E07E0
:10450000AE07EFE7BE0769F0B7FF07C0B095A0950B
:10451000909581959F4FAF4FBF4F89879A87AB8703
:10452000BC87809161068111F2C3F101868D978D60
:10453000A0A1B1A1B7FF07C0B095A09590958195B6
:104540009F4FAF4FBF4F40910801509109016091BB
:104550000A0170910B0184179507A607B7070CF4A1
:104560005AC5D10196964D915D916D917C91999727
:104570008091810790918207A0918307B091840771
:10458000481759076A077B070CF445C5CD88DE88B4
:10459000EF88F88CBFEFCB16DB06EB06BFE7FB0618
:1045A00009F41FC289859A85AB85BC858F3FEFEFE3
:1045B0009E07AE07EFE7BE0709F413C249805A8091
:1045C0006B807C80498E5A8E6B8E7C8E6D807E8057
:1045D0008F80988469A67AA68BA69CA68D849E84DB
:1045E000AF84B88889A29AA2ABA2BCA249885A8893
:1045F0006B887C884DA65EA66FA678AA698C7A8C9B
:104600008B8C9C8C09A51AA52BA53CA50615170516
:10461000280539050CF034C1081719072A073B078C
:104620000CF038C121E0698C7A8C8B8C9C8C8615BF
:104630009705A805B9050CF082C120E080C1E98D7D
:10464000FA8D80819181A281B381840D951DA61D73
:10465000B71DF1014085518562857385CDA0DEA02F
:10466000EFA0F8A4C80ED91EEA1EFB1EC416D5067C
:10467000E606F7066CF0E9A4FAA40BA51CA58E19B2
:104680009F09A00BB10B481759076A077B0744F431
:104690002F5F098D1A8D025F1F4F1A8F098F0CCD66
:1046A00001E00DCDD1011896CD90DD90ED90FC90FC
:1046B0001B974481558166817781440D551D661D88
:1046C000771DC416D506E606F7066CF040815181C9
:1046D00062817381440D551D661D771D4C155D0566
:1046E0006E057F051CF48F5F3896EECC01E009ABB8
:1046F000EECC843009F0FFCD6955734F85E99CE01D
:104700000E945C5560EF71E085E99CE00E94515584
:1047100085E99CE07DD8EFCD22E43FE040E050E029
:10472000BA018FEF9EEF08C022E43FE04BE754ED63
:1047300060E070E090E080E00E94721BDCCD22E43B
:104740003FE045E85BE26FEF7FEFEBCF019609A119
:104750001AA1025F1F4F1AA309A397CD8DE66DCE54
:10476000693009F081C0409144065091450660913E
:10477000460670914706C0900201D0900301E09078
:104780000401F0900501C0924406D0924506E092E3
:104790004606F09247068D899E89AF89B88D809331
:1047A000020190930301A0930401B09305018F3F90
:1047B000FFEF9F07AF07FFE7BF0709F4B2CE0FEF88
:1047C000C016D006E0060FE7F00609F4AACE4F3F68
:1047D0001FEF510761071FE7710709F4A2CE9A0185
:1047E000AB01281B390B4A0B5B0BA8EEB3E00E9410
:1047F000F8542091250130912601220F331F50E0FB
:1048000040E00E94C75457FF07C05095409530952F
:1048100021953F4F4F4F5F4FA0E1B7E20E94F85400
:10482000698F7A8F8B8F9C8F2D853E854F85588918
:1048300089899A89AB89BC89281B390B4A0B5B0B88
:1048400057FF07C050954095309521953F4F4F4FEA
:104850005F4F698D7A8D8B8D9C8D0E94C7542987FF
:104860003A874B875C875DCE8E010F5F1F4F9E019D
:104870002B5F3F4FAE01475F5F4FC1014BDA51CE17
:1048800049A45AA46BA47CA484159505A605B70574
:104890000CF44AC080919007882309F440C08FEF40
:1048A0009FEF0E942F1B69A07AA08BA09CA00DA552
:1048B0001EA52FA538A906151705280539050CF0E2
:1048C00082C00C151D052E053F050CF086C069A0A1
:1048D0007AA08BA09CA0C614D704E804F9040CF0BD
:1048E00041C1A70196014DA45EA46FA478A8241924
:1048F000350946095709A0E0BFEF0E94F854698FB7
:104900007A8F8B8F9C8F29A13AA14BA15CA124198E
:104910003509460957090E94C754C90106C180914B
:10492000130190911401BDCF21E0898C9A8CAB8C3E
:10493000BC8C88169906AA06BB060CF47ECE409164
:104940000F01509110016091110170911201222309
:1049500019F0CA010197A5CF00911301109114011C
:1049600020911501309116010D8F1E8F2F8F38A3C6
:104970009A01AB014D8C5E8C6F8C78A0241935099F
:10498000460957094C015D0149A45AA46BA47CA4B3
:1049900084189508A608B708C501B4010E9463549D
:1049A0006DA37EA38FA398A7298D3A8D4B8D5C8D27
:1049B00024193509460957090E94C7548D8D9E8DCB
:1049C000820F931F6ECF4DA45EA46FA478A8C41469
:1049D000D504E604F7040CF4BBC080910E018111EC
:1049E000A0C090E080E00E942F1B80918C079091E6
:1049F0008D07009709F48BC1E0918F07EE2309F42E
:104A000086C120918507309186072817390708F459
:104A10007EC1A0910601B0910701409167064470E4
:104A20008C91482B09F073C190918E0780906E078E
:104A300090906F07A0907007B0907107F6E02E2F4E
:104A400030E0E92EF12CF99FD0011124A650B44F8B
:104A50001C91153009F49BC090938E0780910D0135
:104A600020E034E08823A1F0F10140845184628485
:104A70007384EFE2FCE177FC09C041145104F0EBD0
:104A80006F0671040CF4A1C0E5E4FCE125913491BA
:104A900086E08E9DF0018F9DF00D1124E650F44FBD
:104AA0004181442309F4C1C0413009F4C9C080E602
:104AB00096E09093070180930601133009F4D1C169
:104AC00008F0C1C0113009F4A0C1123009F4A3C12B
:104AD000FC011111C3C0F10186A197A1A0A5B1A548
:104AE0002C013D018AE0440C551C661C771C8A95FC
:104AF000D1F7498E5A8E6B8E7C8E50E040E0C30118
:104B0000B2010E94C754BA01A901E12C01E022E0E0
:104B100080E696E00E94301490930701809306018E
:104B20009BC0813041F490E080E00E94381B60E03F
:104B300070E0CB010AC0823009F590E080E00E946D
:104B4000381B6BE774ED80E090E00E94411B4DCF75
:104B500089A09AA0ABA0BCA08C149D04AE04BF0495
:104B60000CF4BFCE80910E01882309F43ACF813036
:104B700019F48FEF9EEFD9CF8230F9F68FEF9EEFC9
:104B80000E94381B65E87BE28FEF9FEFDECFD101FB
:104B900018964D905D906D907C901B974818590821
:104BA0006A087B08B0E64B16B3EE5B06B6E16B060F
:104BB00071040CF051CFC7010196B9010E949254C3
:104BC000982F4F5FE4133DCF9CC0B301A20194E145
:104BD00075956795579547959A95D1F7440F551F49
:104BE000FA01E15DF34E85919491FA01EF5CF34E89
:104BF000459154913AE075946794579447943A9547
:104C0000D1F703E0502266247724481B590B449DBA
:104C10009001459D300D549D300D1124232F3327D5
:104C200026952695280F391F33CFACE1B7E40E94B3
:104C3000E354698F7A8F8B8F9C8F2B8D3C8D37CF70
:104C4000A1E7B2E7F4CF1B3009F420C11C3009F40E
:104C500072C1143009F414C1E0E6F6E080918F07C8
:104C60008230D8F060910601709107019B012150BC
:104C7000310980918E0706E0809FC0011124865083
:104C8000944FDC018C918F5FD9018C931197B09375
:104C90000701A09306018EE38C93A0918E072A2F23
:104CA00030E006E0A09FD0011124A650B44F4C91F3
:104CB0004530E9F012968D919D910D90BC91A02DFB
:104CC0000097A105B10509F0A0C134974C3079F4E3
:104CD00086E0829FD001839FB00D1124A650B44F6F
:104CE00011968C91882309F494C186E681931082F1
:104CF00080918E0790E0019660918F0770E00E948E
:104D0000925480938E071092860710928507209107
:104D100085073091860780918C0790918D07281721
:104D2000390750F48091250190912601820F931F3D
:104D300090938607809385070E94CA15811124C02D
:104D40000E94CD15F101E05CFF4FE080D101DF96BC
:104D50000C91DF97DE962C91DE97DD964C91DD97D6
:104D6000DC966C91DC97DA968D919C910E94AE1442
:104D700083EA9BE10E94201481E080935006809199
:104D80006706826080936706809168068F5F8093D4
:104D9000680680916706F1014089518962897389AB
:104DA000403157426105710508F042C18860809327
:104DB00067068091670680936606F101808591857C
:104DC000A285B3858093620690936306A0936406E0
:104DD000B093650610927307E1960FB6F894DEBFA4
:104DE0000FBECDBFDF91CF911F910F91FF90EF903C
:104DF000DF90CF90BF90AF909F908F907F906F90FB
:104E00005F904F903F902F900895F101868D978D80
:104E1000A0A1B1A165CED1015E96CD90DD90ED90BF
:104E2000FC909197C114D104E104F10489F09696A5
:104E30002D913D914D915C919997A4E6B0E00E942F
:104E4000F854698F7A8F8B8F9C8FA701960159CE6A
:104E50008FE596E0909307018093060110925F061C
:104E6000FBCEF101C6A0D7A0E0A4F1A4C114D104E7
:104E7000E104F10469F3268D378D40A151A1DDCF06
:104E8000F10182A193A1A4A1B5A12ACED101969648
:104E90006D917D918D919C9199970E94E0527B013B
:104EA0008C01F101668D778D80A191A10E94E05265
:104EB0009701A801698F7A8F8B8F9C8F698D7A8D6E
:104EC0008B8D9C8D0E94F25120E030E048EC52E442
:104ED000698F7A8F8B8F9C8F698D7A8D8B8D9C8D4E
:104EE0000E9498532BED3FE049E450E4698F7A8F9C
:104EF0008B8F9C8F698D7A8D8B8D9C8D0E944552F6
:104F000020E030E044E353E4698F7A8F8B8F9C8FED
:104F1000698D7A8D8B8D9C8D0E949853698F7A8FC5
:104F20008B8F9C8F698D7A8D8B8D9C8D0E94AD525D
:104F3000AB01BC01EACD86E08E9DF0018F9DF00DA6
:104F40001124E650F44F428053806480758049A25A
:104F50005AA26BA27CA2411151C0A0E1B7E2A30109
:104F600092010E94F854698F7A8F8B8F9C8FD101A8
:104F700018962D913D914D915C911B9728193909F7
:104F80004A095B09AAE0B0E00E94F8546D8F7E8F59
:104F90008F8F98A3698D7A8D8B8D9C8D22E030E068
:104FA00040E050E00E94C7544D8C5E8C6F8C78A01E
:104FB000420E531E641E751E4D8E5E8E6F8E78A23D
:104FC000C301B201298D3A8D4B8D5C8D0E94C7546F
:104FD00083E596E0909307018093060169A17AA189
:104FE0008BA19CA10E946354698F7A8F8B8F9C8FB9
:104FF00043E556E00E94BE1DFC0130CEA8EEBBE0AA
:1050000029A13AA14BA15CA1ACCF0397E80FF91FEE
:105010005DCE8DE66BCE90E080E00E942F1B77CEB8
:105020008E7F8093670690E080E00E942F1BB1CEB8
:10503000877FBDCECF92DF92EF92FF920F931F93A7
:10504000CF93DF93D82F8B016A0185EB0E94F31C6D
:1050500082E60E94F31C86E00E94F31C8D2F0E94C2
:10506000F31CCD2FC00F802F0E94F31CCA5F80E07D
:105070000E94F31C8C2F880FD45FD80F76010C0D83
:105080001D1DF70181917F010E94F31CF7013197EB
:105090008081C80FDC0FE016F10699F78C2F0E9473
:1050A000F31C8D2FDF91CF911F910F91FF90EF9007
:1050B000DF90CF900C94F31CCF93C82F84EF91E036
:1050C0000E943E180E944718892B41F10E94D81C6B
:1050D0009C01211581E03807A9F3822F0E94121D3F
:1050E000882381F38091CC07853061F78091CB07CD
:1050F000813051F490919507963021F79091960761
:105100009C13E0CFCF9108958111DCCF809195075A
:105110008630C1F680919607C813D4CF80E0F2CFD5
:1051200080914F068823F9F0813049F180914F0634
:105130008130C1F480914D0690914E06009771F533
:1051400088B18F7988B988B188B980914D069091DE
:105150004E06019668EE73E00E947E5490934E06D0
:1051600080934D0608958091670680FFDFCF1092EF
:105170004E0610924D0681E080934F06D7CF809166
:10518000670680FDD3CF8091D90B98B19F7998B9EC
:1051900098B1892B88B910924F06C8CF84389340B4
:1051A000A1F68091D90B98B19F7998B998B1892BC4
:1051B000CBCFEF92FF920F931F93CF93DF93CDB797
:1051C000DEB7C056D1090FB6F894DEBF0FBECDBF13
:1051D0008EE1E4E7F1E0DE01959601900D928A956B
:1051E000E1F7809125019091260169969FAF8EAFDE
:1051F000699781E090E06B969FAF8EAF6B976D964D
:105200001FAE1EAE6D97A1961CAE1DAE1EAE1FAE9C
:10521000A19729E0A0962FAFA097FE01349621E236
:10522000DF011D922A95E9F79A83898380912701EE
:105230008B8384E1E2E9F1E0DE01AD5BBF4F0190D9
:105240000D928A95E1F783E390E00E94BE1CAE01C7
:105250004D5B5F4F64E170E080E0ECDE0E940D1D6D
:10526000892BE1F38CE090E00E94BE1C8FE19EE46C
:105270000197F1F700C00000AE014D5B5F4F64E1A4
:1052800070E080E0D7DE80E017DF8823E1F28E0156
:105290000B5D1F4F78019EE1E90EF11CA80163E050
:1052A00070E081E0C7DE81E007DF8823B9F30D5F9E
:1052B0001F4F0E151F0591F7AE01495A5F4F66E06B
:1052C00070E088E0B7DE88E0F7DE8823A9F3AE015E
:1052D0004F5F5F4F64E270E084E2ACDE84E2ECDEBC
:1052E0008823A9F3AE01435A5F4F64E070E084E085
:1052F000A1DE8091880790918907A0918A07B091DB
:105300008B07181619061A061B062CF480916706DF
:1053100084608093670620918F0730E0E0918E07CC
:105320008091670650E040E0A6E0EA9FF00111247A
:10533000E650F44F4217530780F080936706C05A37
:10534000DF4F0FB6F894DEBF0FBECDBFDF91CF9118
:105350001F910F91FF90EF90089582FDEECF908105
:10536000953009F484604F5F5F4FE4CFCF92DF92B6
:10537000EF920F931F93CF93DF9300D000D000D014
:10538000CDB7DEB70E94D81C9C0190FF1DC1809153
:105390005006823009F478C208F046C2811166C214
:1053A0000E944E1C882309F441C20E94E047892BC9
:1053B00009F43CC240916906498380916806481708
:1053C00009F434C24370E1E44E9FC00111248659B0
:1053D000994F9E838D830E94CD151092940C8AE084
:1053E0008093930CED81FE81458950E070E060E090
:1053F0008DE0E82E00E020E083E99CE00E9430147C
:10540000ED81FE81448950E070E060E02CE2E22E04
:1054100020E00E943014ED81FE8142A953A964A9C5
:1054200075A901E025E00E943014ED81FE8142A5BE
:1054300053A564A575A525E00E943014ED81FE8179
:1054400046A557A560A971A922E00E943014ED81FC
:10545000FE81408951896289738923E00E9430145A
:10546000ED81FE81448555856685778523E00E9420
:105470003014ED81FE81468D578D60A171A122E02F
:105480000E943014ED81FE81428D538D648D758DA7
:1054900022E00E943014ED81FE8146895789608D9B
:1054A000718D22E00E943014ED81FE81408551858E
:1054B0006285738523E00E943014ED81FE81408176
:1054C00051816281738127E00E943014ED81FE8159
:1054D000448155816681778127E00E9430146C01F8
:1054E0008CE2F60182936F01ED81FE8186A997A976
:1054F000A0ADB1AD8C019D01005C144B234B3F4F1F
:1055000009831A832B833C83C901B80120E836E95B
:1055100048E950E00E94C754BA01A9013AE5E32ED8
:1055200000E022E0C6010E943014ED81FE81E05CC3
:10553000FF4F408150E070E060E0EEE2EE2E22E0AE
:105540000E943014ED81FE8147AD50E070E060E0D4
:10555000FAE3EF2E22E00E943014ED81FE8146AD89
:1055600050E070E060E022E00E943014ED81FE81A6
:1055700045AD50E070E060E0A4E5EA2E22E00E9434
:105580003014ED81FE8144AD50E070E060E0BDE29A
:10559000EB2E22E00E943014ED81FE8142AD53AD2E
:1055A00070E060E024E00E9430149C019091690654
:1055B0009F5F909369066AED7BE0C9010E94CC462B
:1055C00081E08093500632C1822F0E94121D8823F1
:1055D00009F4D8CE80916906E091680694E0980FAE
:1055E0009E1303C08F5F809369068091CC07813042
:1055F00009F0C8CE8091CB07823109F4A4C0F8F439
:10560000823009F453C0863009F0BCCEE37001E467
:10561000E09FF0011124E659F94F80919F07848B98
:105620008091C407858B40919507509196076091B2
:1056300097077091980782E00E94E21FA3CE813203
:1056400009F0A0CEE37031E4E39FF0011124E659A4
:10565000F94F80919D0790919E07A0919F07B0916F
:10566000A00786AB97ABA0AFB1AF8091A107909197
:10567000A20793AF82AF8091A30784AF8091A40764
:1056800085AF8091A50786AF8091A60787AFE05CC4
:10569000FF4F8091A707808340919507509196070F
:1056A000609197077091980788E0C6CFE37011E486
:1056B000E19FF0011124E659F94F809199079091EB
:1056C0009A07A0919B07B0919C0780839183A28346
:1056D000B38380919D0790919E07A0919F07B09101
:1056E000A00784839583A683B7838091A5079091B3
:1056F000A607A091A707B091A80780879187A287E6
:10570000B3878091A9079091AA07A091AB07B091A8
:10571000AC0784879587A687B7878091AD0790915E
:10572000AE07A091AF07B091B007808B918BA28B91
:10573000B38B4091950750919607609197077091B0
:10574000980781E079CFE37021E4E29FF001112412
:10575000E659F94F8091990790919A07A0919B077C
:10576000B0919C07868B978BA08FB18F80919D07FE
:1057700090919E07A0919F07B091A007828F938F71
:10578000A48FB58F8091A1079091A207A091A30744
:10579000B091A407868F978FA0A3B1A38091A5078E
:1057A00082A38091A60783A38091A70784A38091F9
:1057B000A80785A38091A90786A38091AA0787A33C
:1057C0008091AB0780A78091AC0781A78091AD073E
:1057D0009091AE07A091AF07B091B00782A793A7B1
:1057E000A4A7B5A78091B1079091B207A091B30784
:1057F000B091B40786A797A7A0ABB1AB8091B507CE
:105800009091B607A091B707B091B80782AB93AB60
:10581000A4ABB5AB4091950750919607609197075F
:105820007091980784E008CF8330E1F1E0910601A0
:10583000F09107018081882309F4EFC00E94671C62
:10584000882309F4ADC00E94E047892B09F4A8C061
:105850000E946D1CE0910601F091070180818D325C
:10586000A1F58CEB91E00E94081C91C00E944E1C97
:105870008823E1F20E94E047892BC1F28AED9BE088
:105880000E94694082E09DCE0E944E1C882371F2E6
:105890000E94E047892B51F28AED9BE00E94D8409C
:1058A00083E08FCE0E944E1C882309F4BFCF0E9454
:1058B000E047892B09F4BACF8AED9BE00E94204291
:1058C0000E94D01510925006B1CF8E3219F484EB9D
:1058D00091E0C9CF883619F48EEE91E0C4CF8B36B3
:1058E00019F48DEE91E0BFCF8D3619F485EF91E07C
:1058F000BACF863619F480E092E0B5CF8437E9F468
:10590000CF010196909307018093060181818093D6
:10591000960C81E38093950C8EE28093970C87E739
:105920008093980C81E68093990C86E780939A0C7B
:1059300010929B0C85E99CE096CF883769F4CF01E3
:105940000196909307018093060181818093950CC5
:1059500080E38093960CE0CF8E3309F04DC0CF01E9
:10596000019690930701809306012181022F015037
:10597000110BC8012430B9F104301105FCF40130D9
:10598000110559F10230110559F1892B19F1809156
:1059900006019091070101969093070180930601FB
:1059A00026960FB6F894DEBF0FBECDBFDF91CF9124
:1059B0001F910F91EF90DF90CF9008950B3011055C
:1059C000A9F00C301105A9F00430110501F786E2A9
:1059D00092E049CF89E092E046CF82E192E043CF66
:1059E0008CE192E040CF8BE192E03DCF80E392E00A
:1059F0003ACF89E392E037CF8093950C8EE2809383
:105A0000960C87E78093970C81E68093980C86E745
:105A10008093990C10929A0C8DCF0E94711C8091EA
:105A2000670681FF12C00E94671C882371F0809175
:105A300067068D7F8093670622E43FE040E050E0F8
:105A4000BA018FEF9EEF0E94721B80916706982F1C
:105A50009570953009F0A4CF83FFA2CF0E94671CF8
:105A6000882309F49DCF809167068B7F809367061A
:105A700081E596E0909307018093060140916206CC
:105A800050916306609164067091650680916E077F
:105A900090916F07A0917007B09171078A019B01E7
:105AA000081B190B2A0B3B0B09831A832B833C839E
:105AB00080910C01811124C0C901B80128EE33E0A6
:105AC00040E050E00E94C75429833A834B835C83B3
:105AD00041E556E069817A818B819C810E94BE1DDF
